:020000040800F2
:2030000000A000206134000835350008393500083D35000841350008453500081C3000089D
:20302000203000082430000828300008493500084D35000834300008513500083135000804
:203040004030000844300008483000084C3000085030000854300008583000085C30000840
:203060006030000864300008683000086C3000087030000874300008783000087C30000820
:203080008030000884300008883000088C3000089030000894300008983000089C30000800
:2030A000A0300008A4300008A8300008AC300008B0300008B4300008B8300008BC300008E0
:2030C000C0300008C4300008C8300008CC300008D0300008D4300008D8300008DC300008C0
:2030E000E0300008E4300008E8300008EC300008F0300008F4300008F8300008FC300008A0
:203100000031000804310008083100080C3100081031000814310008183100081C31000877
:203120002031000824310008283100082C3100083031000834310008383100083C31000857
:203140004031000844310008483100084C3100085031000854310008583100085C31000837
:203160006031000864310008683100086C3100087031000874310008783100087C31000817
:2031800080310008843100080000000000A24A040010004800100048001000480010004869
:2031A00000010002000400080000200000002000000020000000200010B441F20002C4F2D1
:2031C0000202106841F2040350F001001060C4F202034CF20C01CFF67F014FF6CC44186868
:2031E000CFF6007408401860106830F0847030F480301060106830F480201060186830F4B6
:20320000FE00186041F22C00C4F20200016831F00F01016041F23000C4F202000168214041
:20322000016041F208010020C4F2020108604DF8080D0190106850F480301060106810F46D
:20324000003001900098401C0090019818B90098B0F5A06FF2D1106810F4003018BF01200C
:203260000190019801282AD1122042F20001C4F2020108601868186018681860186850F4C4
:2032800080601860186830F47C101860186850F4E8101860106850F080701060106810F06A
:2032A000007FFBD0186830F003001860186850F002001860186810F00C000828FAD15FF099
:1232C00000605FF0E021C1F8080D02B05DF8044B704771
:2032D40030B502460B460025012010FA05F118680840884237D15868012801D002281BD1AC
:2032F40094685FEA4501032010FA01F084439460986810FA01F1906808439060012010FAFC
:2033140005F1908888439080D86880B210FA05F081B29088084390805FEA450E0320116861
:2033340010FA0EF081431160596811FA0EF4116821431160D1688143D160186910FA0EF168
:0E335400D0680843D0606D1C102DBDD330BD75
:2033640000B5002000F02EF8012000F02BF8022000F028F8032000F025F800F0D1F81048B7
:2033840000685FF47A71B0FBF1F030F07F40411E5FF0E0204161F02180F8231D00218161FC
:2033A4000721016100F084F85FF4FA7000F0B0F800F07EF85FF4967000F0AAF8F2E7C0468E
:2033C4000400002070B585B00546114C04F1180050F82500012100F079F804F1100636F88D
:2033E40015000090012001900020039004900320029004F1000454F825006946FFF768FF00
:2034040054F8250036F81510816105B070BDC0460800002010B5104C54F8043B012B54F8CE
:20342400040B54F8041B54F8042B06D1521E11F9013B00F8013BF9D1EEE7022B05D100210F
:20344400521E00F8011BFAD1E6E7032B18BF10BDFFF73EFFE0E710BD58350008DFF824F033
:20346400DFF824D0FFF7A6FEFFF7D4FF07485FF0E021C1F8080D00200146FFF771FF00F0F0
:2034840067F870476534000800A0002000300008064901F1000252F8202001F1100131F880
:2034A400100032F8143F4340138070470800002000B50020FFF7ECFF0120FFF7E9FF0220AF
:2034C400FFF7E6FF0320FFF7E3FF00BD41F21402C4F2020211B11168014301E011688143B5
:2034E4001160704704480168002908BF70470168491E01607047C0460000002031F0604174
:2035040031F07F0108435FF0E021C1F8080D70470249086008680028FCD1704700000020F7
:123524005FF000605FF44051FFF7E8BFFFF7DABF70471F
:02353800FEE7AC
:02353C00FEE7A8
:02354000FEE7A4
:02354400FEE7A0
:023548007047CA
:02354C007047C6
:023550007047C2
:02355400FEE790
:20355800010000000000002088310008300000000000000000000000000000000000000041
:04000005080034615A
:00000001FF
