:020000040800F2
:2030000000500020F9330008CD3400080C300008D1340008D5340008D93400081C30000838
:20302000203000082430000828300008DD340008E134000834300008E5340008C9340008B4
:203040004030000844300008483000084C3000085030000854300008583000085C30000840
:203060006030000864300008683000086C3000087030000874300008783000087C30000820
:203080008030000884300008883000088C3000089030000894300008983000089C30000800
:2030A000A0300008A4300008A8300008AC300008B0300008B4300008B8300008BC300008E0
:2030C000C0300008C4300008C8300008CC300008D0300008D4300008D8300008DC300008C0
:2030E000E0300008E4300008E8300008EC300008F0300008F4300008F8300008FC300008A0
:203100000031000804310008083100080C3100081031000814310008183100081C31000877
:203120002031000824310008283100082C3100080000000000A24A04001001400010014081
:203140000010014000100140400080000001000210000000100000001000000010000000CA
:2031600041F20002C4F20202106841F2040350F001001060C4F2020340F20001CFF6FF014A
:2031800018680840186041F20801C4F20201106830F0847030F480301060106830F48020EE
:2031A0001060186830F4FE0018605FF41F00086000204DF8080D0190106850F480301060C4
:2031C000106810F4003001900098401C0090019818B90098B0F5A06FF2D1106810F4003009
:2031E00018BF012001900198012834D142F20000C4F20200016851F010010160016831F0ED
:2032000003010160016851F0020101601868186018681860186850F480601860186830F48B
:203220007C101860186850F4E8101860106850F080701060106810F0007FFBD0186830F0DC
:2032400003001860186850F002001860186810F00C000828FAD15FF000605FF0E021C1F87A
:06326000080D02B07047EA
:20326800F0B403460A46906810F00F0410F0100F1CBF50680443108810F0FF0F1DD01D68ED
:203288000026012010FA06F710883840B84210D15FEA86010F2010FA01F0854314FA01F02C
:2032A80005439068282801D15F6102E0482808BF1F61761C082EE4D31D601088FF281FDD94
:2032C8005D68002630465FF4807111FA00F710883840B84210D15FEA86010F2010FA01F05A
:2032E800854314FA01F005439068282808BF5F619068482808BF1F61761C082EE2D35D60FF
:20330800F0BC704700B5002000F052F8012000F04FF8022000F04CF8032000F049F800F041
:20332800C9F8104800685FF47A71B0FBF1F030F07F40411E5FF0E0204161F02180F8231D42
:20334800002181610721016100F07CF85FF4FA7000F0A8F800F076F85FF4967000F0A2F8E6
:20336800F2E7C0460400002010B5104C54F8043B012B54F8040B54F8041B54F8042B06D152
:20338800521E11F9013B00F8013BF9D1EEE7022B05D10021521E00F8011BFAD1E6E7032B2E
:2033A80018BF10BDFFF75CFFE0E710BDEC34000830B583B005460D4C04F1180050F825001E
:2033C800012100F04DF804F1100030F81500ADF80000102002900320019004F1000454F8EC
:2033E80025006946FFF73CFF03B030BD08000020DFF824F0DFF824D0FFF7AEFEFFF7B4FFF7
:2034080007485FF0E021C1F8080D00200146FFF779FF00F065F87047FD33000800500020B6
:2034280000300008064901F1000252F8202001F1100131F8100052F80C3F43401360704701
:203448000800002000B50020FFF7ECFF0120FFF7E9FF0220FFF7E6FF0320FFF7E3FF00BDD2
:2034680041F21802C4F2020211B11168014301E0116881431160704704480168002908BFD3
:2034880070470168491E01607047C0460000002031F0604131F07F0108435FF0E021C1F8A8
:2034A800080D70470249086008680028FCD17047000000205FF000605FF44051FFF7E8BF19
:0634C800FFF7DABF7047B8
:0234D000FEE715
:0234D400FEE711
:0234D800FEE70D
:0234DC00704737
:0234E000704733
:0234E40070472F
:0234E800FEE7FD
:2034EC00010000000000002030310008300000000000000000000000000000000000000006
:04000005080033F9C3
:00000001FF
