:020000040800F2
:2030000000C0002069340008B1330008B5330008B9330008BD330008113400081C300008C2
:203020002030000824300008283000081534000819340008343000081D340008AD33000829
:203040004030000844300008483000084C3000085030000854300008583000085C30000840
:203060006030000864300008683000086C3000087030000874300008783000087C30000820
:203080008030000884300008883000088C3000089030000894300008983000089C30000800
:2030A000A0300008A4300008A8300008AC300008B0300008B4300008B8300008BC300008E0
:2030C000C0300008C4300008C8300008CC300008D0300008D4300008D8300008DC300008C0
:2030E000E0300008E4300008E8300008EC300008F0300008F4300008F8300008FC300008A0
:203100000031000804310008083100080C3100081031000814310008183100081C31000877
:2031200020310008000000000048E801000C0240000C0240001C0240001C02400800800025
:20314000004000800800000008000000800000008000000043F60002C4F20202106843F6F9
:20316000080350F480701060C4F202034CF20C01C8F6FF0118680840186043F60C01C4F2A0
:203180000201106830F0011030F088501060106830F480201060186830F47D0018600020B6
:2031A00008604DF8080D0190106850F480301060106810F4003001900098401C0090019886
:2031C00018B90098B0F5A06FF2D1106810F4003018BF012001900198012849D143F6004085
:2031E000C4F20200016851F004010160016851F002010160016851F00101016043F624008F
:20320000C4F20200016851F0805101605FF4006047F20001C4F20001086047F20400C4F21B
:203220000000006810F0100FF7D1186818601868186018681860186830F47D00186018683E
:2032400050F411001860106850F080701060106810F0007FFBD0186830F00300186018682C
:2032600050F003001860186810F00C000C28FAD15FF000605FF0E021C1F8080D02B07047D2
:2032800030B502460B460024012010FA04F118680840884239D15FEA440E032010FA0EF00A
:2032A0006FEA0005106828401060586810FA0EF11068084310605868012801D0022816D199
:2032C000906828409060986810FA0EF1906808439060012010FA04F1908888439080D8680F
:2032E00080B210FA04F081B29088084390805FEA4401032010FA01F1D0688843D060186997
:1233000010FA0EF1D0680843D060641C102CBBD330BDC8
:2033140000B5002000F052F8012000F04FF8022000F04CF8032000F049F800F037F8104811
:2033340000685FF47A71B0FBF1F030F07F40411E5FF0E0204161F02180F8231D002181614C
:203354000721016100F0B0F85FF4FA7000F012F800F0AAF85FF4967000F00CF8F2E7C046C2
:043374000400002031
:163388000249086008680028FCD1704700000020032002907047D4
:1233A0005FF000605FF4405100F0AEB800F0A0B8704733
:0233B400FEE732
:0233B800FEE72E
:0233BC00FEE72A
:2033C00070B585B00546114C04F1180050F82500012100F081F804F1100636F81500009008
:2033E00001200190002003900490FFF7D5FF04F1000454F825006946FFF742FF54F8250049
:1234000036F81510018305B070BDC04608000020FEE7EE
:023414007047FF
:023418007047FB
:02341C007047F7
:2034200010B5104C54F8043B012B54F8040B54F8041B54F8042B06D1521E11F9013B00F8EE
:20344000013BF9D1EEE7022B05D10021521E00F8011BFAD1E6E7032B18BF10BDFFF75AFF30
:20346000E0E710BD20350008DFF824F0DFF824D0FFF770FEFFF7D4FF07485FF0E021C1F820
:20348000080D00200146FFF745FF00F047F870476D34000800C0002000300008064901F18E
:2034A000000252F8202001F1100131F8100032F8143F4340138070470800002000B50020FD
:2034C000FFF7ECFF0120FFF7E9FF0220FFF7E6FF0320FFF7E3FF00BD43F61C02C4F2020246
:2034E00011B11168014301E0116881431160704704480168002908BF70470168491E01607A
:1E3500007047C0460000002031F0604131F07F0108435FF0E021C1F8080D7047FEE768
:203520000100000000000020243100083000000000000000000000000000000000000000DD
:040000050800346952
:00000001FF
